{
  "_format": "hh-sol-artifact-1",
  "contractName": "SingleSwapToken",
  "sourceName": "contracts/SingleSwapToken.sol",
  "abi": [
    {
      "inputs": [
        {
          "internalType": "contract ISwapRouter",
          "name": "_swapRouter",
          "type": "address"
        }
      ],
      "stateMutability": "nonpayable",
      "type": "constructor"
    },
    {
      "inputs": [],
      "name": "feeTier",
      "outputs": [
        {
          "internalType": "uint24",
          "name": "",
          "type": "uint24"
        }
      ],
      "stateMutability": "view",
      "type": "function"
    },
    {
      "inputs": [
        {
          "internalType": "address",
          "name": "token1",
          "type": "address"
        },
        {
          "internalType": "address",
          "name": "token2",
          "type": "address"
        },
        {
          "internalType": "uint256",
          "name": "amountIn",
          "type": "uint256"
        }
      ],
      "name": "swapExactInputString",
      "outputs": [
        {
          "internalType": "uint256",
          "name": "amountOut",
          "type": "uint256"
        }
      ],
      "stateMutability": "payable",
      "type": "function"
    },
    {
      "inputs": [
        {
          "internalType": "address",
          "name": "token1",
          "type": "address"
        },
        {
          "internalType": "address",
          "name": "token2",
          "type": "address"
        },
        {
          "internalType": "uint256",
          "name": "amountOut",
          "type": "uint256"
        },
        {
          "internalType": "uint256",
          "name": "amountInMaximum",
          "type": "uint256"
        }
      ],
      "name": "swapExactOutputString",
      "outputs": [
        {
          "internalType": "uint256",
          "name": "amountIn",
          "type": "uint256"
        }
      ],
      "stateMutability": "payable",
      "type": "function"
    },
    {
      "inputs": [],
      "name": "swapRouter",
      "outputs": [
        {
          "internalType": "contract ISwapRouter",
          "name": "",
          "type": "address"
        }
      ],
      "stateMutability": "view",
      "type": "function"
    }
  ],
  "bytecode": "0x60a060405234801561001057600080fd5b506040516108a03803806108a083398101604081905261002f91610044565b60601b6001600160601b031916608052610072565b600060208284031215610055578081fd5b81516001600160a01b038116811461006b578182fd5b9392505050565b60805160601c6107fd6100a36000398061012552806101a5528061024b52806102c8528061035b52506107fd6000f3fe60806040526004361061003f5760003560e01c806372f5d98a146100445780637a8ad9881461006f5780637fbbe7061461008f578063c31c9c07146100a2575b600080fd5b34801561005057600080fd5b506100596100c4565b60405161006691906107ae565b60405180910390f35b61008261007d36600461063f565b6100ca565b60405161006691906107be565b61008261009d36600461067a565b610237565b3480156100ae57600080fd5b506100b7610359565b6040516100669190610733565b610bb881565b60008034116100f45760405162461bcd60e51b81526004016100eb90610774565b60405180910390fd5b8134146101135760405162461bcd60e51b81526004016100eb90610747565b61011f8433308561037d565b61014a847f0000000000000000000000000000000000000000000000000000000000000000846104d5565b60408051610100810182526001600160a01b0380871682528581166020830152610bb88284015233606083015242608083015260a08201859052600060c0830181905260e08301819052925163414bf38960e01b81528392917f0000000000000000000000000000000000000000000000000000000000000000169063414bf389906101da908490600401610799565b602060405180830381600087803b1580156101f457600080fd5b505af1158015610208573d6000803e3d6000fd5b505050506040513d601f19601f8201168201806040525081019061022c91906106bb565b979650505050505050565b60006102458533308561037d565b610270857f0000000000000000000000000000000000000000000000000000000000000000846104d5565b60408051610100810182526001600160a01b0380881682528681166020830152610bb88284015233606083015242608083015260a0820186905260c08201859052600060e08301529151631b67c43360e31b815290917f0000000000000000000000000000000000000000000000000000000000000000169063db3e2198906102fd908490600401610799565b602060405180830381600087803b15801561031757600080fd5b505af115801561032b573d6000803e3d6000fd5b505050506040513d601f19601f8201168201806040525081019061034f91906106bb565b9695505050505050565b7f000000000000000000000000000000000000000000000000000000000000000081565b604080516001600160a01b0385811660248301528481166044830152606480830185905283518084039091018152608490920183526020820180516001600160e01b03166323b872dd60e01b178152925182516000948594938a169392918291908083835b602083106104015780518252601f1990920191602091820191016103e2565b6001836020036101000a0380198251168184511680821785525050505050509050019150506000604051808303816000865af19150503d8060008114610463576040519150601f19603f3d011682016040523d82523d6000602084013e610468565b606091505b5091509150818015610496575080511580610496575080806020019051602081101561049357600080fd5b50515b6104cd576040805162461bcd60e51b815260206004820152600360248201526229aa2360e91b604482015290519081900360640190fd5b505050505050565b604080516001600160a01b038481166024830152604480830185905283518084039091018152606490920183526020820180516001600160e01b031663095ea7b360e01b1781529251825160009485949389169392918291908083835b602083106105515780518252601f199092019160209182019101610532565b6001836020036101000a0380198251168184511680821785525050505050509050019150506000604051808303816000865af19150503d80600081146105b3576040519150601f19603f3d011682016040523d82523d6000602084013e6105b8565b606091505b50915091508180156105e65750805115806105e657508080602001905160208110156105e357600080fd5b50515b61061c576040805162461bcd60e51b8152602060048201526002602482015261534160f01b604482015290519081900360640190fd5b5050505050565b80356001600160a01b038116811461063a57600080fd5b919050565b600080600060608486031215610653578283fd5b61065c84610623565b925061066a60208501610623565b9150604084013590509250925092565b6000806000806080858703121561068f578081fd5b61069885610623565b93506106a660208601610623565b93969395505050506040820135916060013590565b6000602082840312156106cc578081fd5b5051919050565b80516001600160a01b03908116835260208083015182169084015260408083015162ffffff16908401526060808301518216908401526080808301519084015260a0828101519084015260c0808301519084015260e09182015116910152565b6001600160a01b0391909116815260200190565b60208082526013908201527208aa89040c2dadeeadce840dad2e6dac2e8c6d606b1b604082015260600190565b6020808252600b908201526a139bc8115512081cd95b9d60aa1b604082015260600190565b61010081016107a882846106d3565b92915050565b62ffffff91909116815260200190565b9081526020019056fea26469706673582212208cfbfb531f5d0eed7ed0c774143d051e1b8ab7357999e9d45739328bc1633def64736f6c63430007060033",
  "linkReferences": {},
  "deployedLinkReferences": {}
}