{
  "_format": "hh-sol-artifact-1",
  "contractName": "SwapMultiHop",
  "sourceName": "contracts/SwapMultiHop.sol",
  "abi": [
    {
      "inputs": [
        {
          "internalType": "contract ISwapRouter",
          "name": "_swapRouter",
          "type": "address"
        }
      ],
      "stateMutability": "nonpayable",
      "type": "constructor"
    },
    {
      "inputs": [],
      "name": "DAI",
      "outputs": [
        {
          "internalType": "address",
          "name": "",
          "type": "address"
        }
      ],
      "stateMutability": "view",
      "type": "function"
    },
    {
      "inputs": [],
      "name": "USDC",
      "outputs": [
        {
          "internalType": "address",
          "name": "",
          "type": "address"
        }
      ],
      "stateMutability": "view",
      "type": "function"
    },
    {
      "inputs": [],
      "name": "WETH9",
      "outputs": [
        {
          "internalType": "address",
          "name": "",
          "type": "address"
        }
      ],
      "stateMutability": "view",
      "type": "function"
    },
    {
      "inputs": [
        {
          "internalType": "uint256",
          "name": "amountIn",
          "type": "uint256"
        }
      ],
      "name": "swapExactInputMultihop",
      "outputs": [
        {
          "internalType": "uint256",
          "name": "amountOut",
          "type": "uint256"
        }
      ],
      "stateMutability": "nonpayable",
      "type": "function"
    },
    {
      "inputs": [
        {
          "internalType": "uint256",
          "name": "amountOut",
          "type": "uint256"
        },
        {
          "internalType": "uint256",
          "name": "amountInMaximum",
          "type": "uint256"
        }
      ],
      "name": "swapExactOutputMultihop",
      "outputs": [
        {
          "internalType": "uint256",
          "name": "amountIn",
          "type": "uint256"
        }
      ],
      "stateMutability": "nonpayable",
      "type": "function"
    },
    {
      "inputs": [],
      "name": "swapRouter",
      "outputs": [
        {
          "internalType": "contract ISwapRouter",
          "name": "",
          "type": "address"
        }
      ],
      "stateMutability": "view",
      "type": "function"
    }
  ],
  "bytecode": "0x60a06040523480156200001157600080fd5b50604051620010d5380380620010d58339818101604052810190620000379190620000f0565b8073ffffffffffffffffffffffffffffffffffffffff1660808173ffffffffffffffffffffffffffffffffffffffff16815250505062000122565b600080fd5b600073ffffffffffffffffffffffffffffffffffffffff82169050919050565b6000620000a48262000077565b9050919050565b6000620000b88262000097565b9050919050565b620000ca81620000ab565b8114620000d657600080fd5b50565b600081519050620000ea81620000bf565b92915050565b60006020828403121562000109576200010862000072565b5b60006200011984828501620000d9565b91505092915050565b608051610f74620001616000396000818161017b0152818161024901528181610307015281816103920152818161040801526104d70152610f746000f3fe608060405234801561001057600080fd5b50600436106100625760003560e01c80633b85cf6a146100675780634aa4a4fc1461009757806389a30271146100b5578063c31c9c07146100d3578063e0bab4c4146100f1578063edd835571461010f575b600080fd5b610081600480360381019061007c9190610861565b61013f565b60405161008e91906108b0565b60405180910390f35b61009f610360565b6040516100ac919061090c565b60405180910390f35b6100bd610378565b6040516100ca919061090c565b60405180910390f35b6100db610390565b6040516100e89190610986565b60405180910390f35b6100f96103b4565b604051610106919061090c565b60405180910390f35b610129600480360381019061012491906109a1565b6103cc565b60405161013691906108b0565b60405180910390f35b600061016173c02aaa39b223fe8d0a0e5c4f27ead9083c756cc2333085610579565b6101a073c02aaa39b223fe8d0a0e5c4f27ead9083c756cc27f0000000000000000000000000000000000000000000000000000000000000000846106d1565b60006040518060a00160405280736b175474e89094c44da98b954eedeac495271d0f606473a9c0da0da5cdb7947fa124b14beb1af63e75b6af610bb873c02aaa39b223fe8d0a0e5c4f27ead9083c756cc2604051602001610205959493929190610a5b565b60405160208183030381529060405281526020013373ffffffffffffffffffffffffffffffffffffffff1681526020014281526020018581526020018481525090507f000000000000000000000000000000000000000000000000000000000000000073ffffffffffffffffffffffffffffffffffffffff1663f28c0498826040518263ffffffff1660e01b81526004016102a09190610bde565b6020604051808303816000875af11580156102bf573d6000803e3d6000fd5b505050506040513d601f19601f820116820180604052508101906102e39190610c15565b9150828210156103595761032d73c02aaa39b223fe8d0a0e5c4f27ead9083c756cc27f000000000000000000000000000000000000000000000000000000000000000060006106d1565b61035873c02aaa39b223fe8d0a0e5c4f27ead9083c756cc2303385876103539190610c71565b610579565b5b5092915050565b73c02aaa39b223fe8d0a0e5c4f27ead9083c756cc281565b73a9c0da0da5cdb7947fa124b14beb1af63e75b6af81565b7f000000000000000000000000000000000000000000000000000000000000000081565b736b175474e89094c44da98b954eedeac495271d0f81565b60006103ee73c02aaa39b223fe8d0a0e5c4f27ead9083c756cc2333085610579565b61042d73c02aaa39b223fe8d0a0e5c4f27ead9083c756cc27f0000000000000000000000000000000000000000000000000000000000000000846106d1565b60006040518060a0016040528073c02aaa39b223fe8d0a0e5c4f27ead9083c756cc2610bb873a9c0da0da5cdb7947fa124b14beb1af63e75b6af6064736b175474e89094c44da98b954eedeac495271d0f604051602001610492959493929190610a5b565b60405160208183030381529060405281526020013373ffffffffffffffffffffffffffffffffffffffff168152602001428152602001848152602001600081525090507f000000000000000000000000000000000000000000000000000000000000000073ffffffffffffffffffffffffffffffffffffffff1663c04b8d59826040518263ffffffff1660e01b815260040161052e9190610d1b565b6020604051808303816000875af115801561054d573d6000803e3d6000fd5b505050506040513d601f19601f820116820180604052508101906105719190610c15565b915050919050565b6000808573ffffffffffffffffffffffffffffffffffffffff166323b872dd60e01b8686866040516024016105b093929190610d3d565b604051602081830303815290604052907bffffffffffffffffffffffffffffffffffffffffffffffffffffffff19166020820180517bffffffffffffffffffffffffffffffffffffffffffffffffffffffff838183161783525050505060405161061a9190610db0565b6000604051808303816000865af19150503d8060008114610657576040519150601f19603f3d011682016040523d82523d6000602084013e61065c565b606091505b509150915081801561068a57506000815114806106895750808060200190518101906106889190610dff565b5b5b6106c9576040517f08c379a00000000000000000000000000000000000000000000000000000000081526004016106c090610e89565b60405180910390fd5b505050505050565b6000808473ffffffffffffffffffffffffffffffffffffffff1663095ea7b360e01b8585604051602401610706929190610ea9565b604051602081830303815290604052907bffffffffffffffffffffffffffffffffffffffffffffffffffffffff19166020820180517bffffffffffffffffffffffffffffffffffffffffffffffffffffffff83818316178352505050506040516107709190610db0565b6000604051808303816000865af19150503d80600081146107ad576040519150601f19603f3d011682016040523d82523d6000602084013e6107b2565b606091505b50915091508180156107e057506000815114806107df5750808060200190518101906107de9190610dff565b5b5b61081f576040517f08c379a000000000000000000000000000000000000000000000000000000000815260040161081690610f1e565b60405180910390fd5b5050505050565b600080fd5b6000819050919050565b61083e8161082b565b811461084957600080fd5b50565b60008135905061085b81610835565b92915050565b6000806040838503121561087857610877610826565b5b60006108868582860161084c565b92505060206108978582860161084c565b9150509250929050565b6108aa8161082b565b82525050565b60006020820190506108c560008301846108a1565b92915050565b600073ffffffffffffffffffffffffffffffffffffffff82169050919050565b60006108f6826108cb565b9050919050565b610906816108eb565b82525050565b600060208201905061092160008301846108fd565b92915050565b6000819050919050565b600061094c610947610942846108cb565b610927565b6108cb565b9050919050565b600061095e82610931565b9050919050565b600061097082610953565b9050919050565b61098081610965565b82525050565b600060208201905061099b6000830184610977565b92915050565b6000602082840312156109b7576109b6610826565b5b60006109c58482850161084c565b91505092915050565b60008160601b9050919050565b60006109e6826109ce565b9050919050565b60006109f8826109db565b9050919050565b610a10610a0b826108eb565b6109ed565b82525050565b600062ffffff82169050919050565b60008160e81b9050919050565b6000610a3d82610a25565b9050919050565b610a55610a5082610a16565b610a32565b82525050565b6000610a6782886109ff565b601482019150610a778287610a44565b600382019150610a8782866109ff565b601482019150610a978285610a44565b600382019150610aa782846109ff565b6014820191508190509695505050505050565b600081519050919050565b600082825260208201905092915050565b60005b83811015610af4578082015181840152602081019050610ad9565b60008484015250505050565b6000601f19601f8301169050919050565b6000610b1c82610aba565b610b268185610ac5565b9350610b36818560208601610ad6565b610b3f81610b00565b840191505092915050565b610b53816108eb565b82525050565b610b628161082b565b82525050565b600060a0830160008301518482036000860152610b858282610b11565b9150506020830151610b9a6020860182610b4a565b506040830151610bad6040860182610b59565b506060830151610bc06060860182610b59565b506080830151610bd36080860182610b59565b508091505092915050565b60006020820190508181036000830152610bf88184610b68565b905092915050565b600081519050610c0f81610835565b92915050565b600060208284031215610c2b57610c2a610826565b5b6000610c3984828501610c00565b91505092915050565b7f4e487b7100000000000000000000000000000000000000000000000000000000600052601160045260246000fd5b6000610c7c8261082b565b9150610c878361082b565b9250828203905081811115610c9f57610c9e610c42565b5b92915050565b600060a0830160008301518482036000860152610cc28282610b11565b9150506020830151610cd76020860182610b4a565b506040830151610cea6040860182610b59565b506060830151610cfd6060860182610b59565b506080830151610d106080860182610b59565b508091505092915050565b60006020820190508181036000830152610d358184610ca5565b905092915050565b6000606082019050610d5260008301866108fd565b610d5f60208301856108fd565b610d6c60408301846108a1565b949350505050565b600081905092915050565b6000610d8a82610aba565b610d948185610d74565b9350610da4818560208601610ad6565b80840191505092915050565b6000610dbc8284610d7f565b915081905092915050565b60008115159050919050565b610ddc81610dc7565b8114610de757600080fd5b50565b600081519050610df981610dd3565b92915050565b600060208284031215610e1557610e14610826565b5b6000610e2384828501610dea565b91505092915050565b600082825260208201905092915050565b7f5354460000000000000000000000000000000000000000000000000000000000600082015250565b6000610e73600383610e2c565b9150610e7e82610e3d565b602082019050919050565b60006020820190508181036000830152610ea281610e66565b9050919050565b6000604082019050610ebe60008301856108fd565b610ecb60208301846108a1565b9392505050565b7f5341000000000000000000000000000000000000000000000000000000000000600082015250565b6000610f08600283610e2c565b9150610f1382610ed2565b602082019050919050565b60006020820190508181036000830152610f3781610efb565b905091905056fea2646970667358221220ab84687a05d85d795d06bf1c6f0788d38d3d292de5e1f84476b5b8b172dba96564736f6c63430008140033",
  "linkReferences": {},
  "deployedLinkReferences": {}
}